{
  "contractName": "ZombieFactory",
  "abi": [
    {
      "anonymous": false,
      "inputs": [
        {
          "indexed": false,
          "internalType": "uint256",
          "name": "ZombieId",
          "type": "uint256"
        },
        {
          "indexed": false,
          "internalType": "string",
          "name": "name",
          "type": "string"
        },
        {
          "indexed": false,
          "internalType": "uint256",
          "name": "dna",
          "type": "uint256"
        }
      ],
      "name": "NewZombie",
      "type": "event"
    },
    {
      "constant": true,
      "inputs": [
        {
          "internalType": "uint256",
          "name": "",
          "type": "uint256"
        }
      ],
      "name": "zombies",
      "outputs": [
        {
          "internalType": "string",
          "name": "name",
          "type": "string"
        },
        {
          "internalType": "uint256",
          "name": "dna",
          "type": "uint256"
        }
      ],
      "payable": false,
      "stateMutability": "view",
      "type": "function"
    },
    {
      "constant": false,
      "inputs": [
        {
          "internalType": "string",
          "name": "_name",
          "type": "string"
        }
      ],
      "name": "createRandomZombie",
      "outputs": [],
      "payable": false,
      "stateMutability": "nonpayable",
      "type": "function"
    }
  ],
  "bytecode": "0x60806040526010600055600054600a0a60015534801561001e57600080fd5b506105138061002e6000396000f3fe608060405234801561001057600080fd5b50600436106100365760003560e01c80632052465e1461003b5780637bff0a01146100e9575b600080fd5b6100676004803603602081101561005157600080fd5b81019080803590602001909291905050506101a4565b6040518080602001838152602001828103825284818151815260200191508051906020019080838360005b838110156100ad578082015181840152602081019050610092565b50505050905090810190601f1680156100da5780820380516001836020036101000a031916815260200191505b50935050505060405180910390f35b6101a2600480360360208110156100ff57600080fd5b810190808035906020019064010000000081111561011c57600080fd5b82018360208201111561012e57600080fd5b8035906020019184600183028401116401000000008311171561015057600080fd5b91908080601f016020809104026020016040519081016040528093929190818152602001838380828437600081840152601f19601f82011690508083019250505050505050919291929050505061026d565b005b600281815481106101b157fe5b9060005260206000209060020201600091509050806000018054600181600116156101000203166002900480601f01602080910402602001604051908101604052809291908181526020018280546001816001161561010002031660029004801561025d5780601f106102325761010080835404028352916020019161025d565b820191906000526020600020905b81548152906001019060200180831161024057829003601f168201915b5050505050908060010154905082565b600061027882610288565b90506102848282610316565b5050565b600080826040516020018082805190602001908083835b602083106102c2578051825260208201915060208101905060208303925061029f565b6001836020036101000a0380198251168184511680821785525050505050509050019150506040516020818303038152906040528051906020012060001c9050600154818161030d57fe5b06915050919050565b600060016002604051806040016040528086815260200185815250908060018154018082558091505090600182039060005260206000209060020201600090919290919091506000820151816000019080519060200190610378929190610439565b506020820151816001015550500390507f88f026aacbbecc90c18411df4b1185fd8d9be2470f1962f192bf84a27d0704b78184846040518084815260200180602001838152602001828103825284818151815260200191508051906020019080838360005b838110156103f85780820151818401526020810190506103dd565b50505050905090810190601f1680156104255780820380516001836020036101000a031916815260200191505b5094505050505060405180910390a1505050565b828054600181600116156101000203166002900490600052602060002090601f016020900481019282601f1061047a57805160ff19168380011785556104a8565b828001600101855582156104a8579182015b828111156104a757825182559160200191906001019061048c565b5b5090506104b591906104b9565b5090565b6104db91905b808211156104d75760008160009055506001016104bf565b5090565b9056fea265627a7a72315820f7dd9a66bdafec34e149d658da37a896fc97f083c04f8fe2f9c4b31a1f7bf33964736f6c63430005100032",
  "source": "pragma solidity ^0.5.16;\n\ncontract ZombieFactory {\n    uint256 dnaDigits = 16;\n    uint256 dnaModulus = 10**dnaDigits;\n\n    event NewZombie(uint256 ZombieId, string name, uint256 dna);\n\n    struct Zombie {\n        string name;\n        uint256 dna;\n    }\n\n    Zombie[] public zombies;\n\n    // _createZombie 라는 private 함수 생성 인자는 2개 (string _name, uint _dna)\n    function _createZombie(string memory _name, uint256 _dna) private {\n        // 해당 함수는 전달받은 인자들로 새로운 Zombie를 생성하고 zombies배열에 추가하는 함수\n        // Zombie zombie = Zombie(_name, _dna);\n        // zombies.push(zombie);\n        uint256 zombieId = zombies.push(Zombie(_name, _dna)) - 1;\n        // Zombie 만들어졌어요(contract->FrontEnd)\n        emit NewZombie(zombieId, _name, _dna);\n    }\n\n    // _generateRandomDna라는 private 함수를 만들고 인자는 (string _str) 반환타입은 (uint)\n    // 이 함수는 컨트랙트 변수를 보지만 변경하지는 않을 것이므로 view로 선언.\n    function _generateRandomDna(string memory _str)\n        private\n        view\n        returns (uint256)\n    {\n        // 함수내용은 _str을 keccak256 해시값(fake random)을 구해서 uint256 rand에 저장\n        // 해당 rand값을 16자리로 만들어서 반환 (hint: rand % ?\n        // 545612348 --> 5자리의 난수로 만들려고 한다. 545612348 % 100000 ( 10**5)\n\n        uint256 rand = uint256(keccak256(abi.encodePacked(_str)));\n        return rand % dnaModulus;\n    }\n\n    function createRandomZombie(string memory _name) public {\n        uint256 randData = _generateRandomDna(_name);\n        _createZombie(_name, randData);\n    }\n}\n",
  "sourcePath": "C:\\Users\\user\\seocho_blockchain\\cryptozombie_0.5.16\\contracts\\ZombieFactory.sol",
  "compiler": {
    "name": "solc",
    "version": "0.5.16+commit.9c3226ce.Emscripten.clang"
  },
  "schemaVersion": "3.4.2",
  "updatedAt": "2021-08-06T05:49:22.629Z",
  "networkType": "ethereum",
  "devdoc": {
    "methods": {}
  },
  "userdoc": {
    "methods": {}
  }
}