{
  "contractName": "ZombieFactory",
  "abi": [
    {
      "anonymous": false,
      "inputs": [
        {
          "indexed": false,
          "internalType": "uint256",
          "name": "ZombieId",
          "type": "uint256"
        },
        {
          "indexed": false,
          "internalType": "string",
          "name": "name",
          "type": "string"
        },
        {
          "indexed": false,
          "internalType": "uint256",
          "name": "dna",
          "type": "uint256"
        }
      ],
      "name": "NewZombie",
      "type": "event"
    },
    {
      "constant": true,
      "inputs": [
        {
          "internalType": "address",
          "name": "",
          "type": "address"
        }
      ],
      "name": "ownerZombieCount",
      "outputs": [
        {
          "internalType": "uint256",
          "name": "",
          "type": "uint256"
        }
      ],
      "payable": false,
      "stateMutability": "view",
      "type": "function"
    },
    {
      "constant": true,
      "inputs": [
        {
          "internalType": "uint256",
          "name": "",
          "type": "uint256"
        }
      ],
      "name": "zombieToOwner",
      "outputs": [
        {
          "internalType": "address",
          "name": "",
          "type": "address"
        }
      ],
      "payable": false,
      "stateMutability": "view",
      "type": "function"
    },
    {
      "constant": true,
      "inputs": [
        {
          "internalType": "uint256",
          "name": "",
          "type": "uint256"
        }
      ],
      "name": "zombies",
      "outputs": [
        {
          "internalType": "string",
          "name": "name",
          "type": "string"
        },
        {
          "internalType": "uint256",
          "name": "dna",
          "type": "uint256"
        }
      ],
      "payable": false,
      "stateMutability": "view",
      "type": "function"
    },
    {
      "constant": false,
      "inputs": [
        {
          "internalType": "string",
          "name": "_name",
          "type": "string"
        }
      ],
      "name": "createRandomZombie",
      "outputs": [],
      "payable": false,
      "stateMutability": "nonpayable",
      "type": "function"
    }
  ],
  "bytecode": "0x60806040526010600055600054600a0a60015534801561001e57600080fd5b506107278061002e6000396000f3fe608060405234801561001057600080fd5b506004361061004c5760003560e01c806301afd7e1146100515780632052465e146100a9578063528b7b8f146101575780637bff0a01146101c5575b600080fd5b6100936004803603602081101561006757600080fd5b81019080803573ffffffffffffffffffffffffffffffffffffffff169060200190929190505050610280565b6040518082815260200191505060405180910390f35b6100d5600480360360208110156100bf57600080fd5b8101908080359060200190929190505050610298565b6040518080602001838152602001828103825284818151815260200191508051906020019080838360005b8381101561011b578082015181840152602081019050610100565b50505050905090810190601f1680156101485780820380516001836020036101000a031916815260200191505b50935050505060405180910390f35b6101836004803603602081101561016d57600080fd5b8101908080359060200190929190505050610361565b604051808273ffffffffffffffffffffffffffffffffffffffff1673ffffffffffffffffffffffffffffffffffffffff16815260200191505060405180910390f35b61027e600480360360208110156101db57600080fd5b81019080803590602001906401000000008111156101f857600080fd5b82018360208201111561020a57600080fd5b8035906020019184600183028401116401000000008311171561022c57600080fd5b91908080601f016020809104026020016040519081016040528093929190818152602001838380828437600081840152601f19601f820116905080830192505050505050509192919290505050610394565b005b60046020528060005260406000206000915090505481565b600281815481106102a557fe5b9060005260206000209060020201600091509050806000018054600181600116156101000203166002900480601f0160208091040260200160405190810160405280929190818152602001828054600181600116156101000203166002900480156103515780601f1061032657610100808354040283529160200191610351565b820191906000526020600020905b81548152906001019060200180831161033457829003601f168201915b5050505050908060010154905082565b60036020528060005260406000206000915054906101000a900473ffffffffffffffffffffffffffffffffffffffff1681565b6000600460003373ffffffffffffffffffffffffffffffffffffffff1673ffffffffffffffffffffffffffffffffffffffff16815260200190815260200160002054146103e057600080fd5b60006103eb826103fb565b90506103f78282610489565b5050565b600080826040516020018082805190602001908083835b602083106104355780518252602082019150602081019050602083039250610412565b6001836020036101000a0380198251168184511680821785525050505050509050019150506040516020818303038152906040528051906020012060001c9050600154818161048057fe5b06915050919050565b6000600160026040518060400160405280868152602001858152509080600181540180825580915050906001820390600052602060002090600202016000909192909190915060008201518160000190805190602001906104eb92919061064d565b506020820151816001015550500390507f88f026aacbbecc90c18411df4b1185fd8d9be2470f1962f192bf84a27d0704b78184846040518084815260200180602001838152602001828103825284818151815260200191508051906020019080838360005b8381101561056b578082015181840152602081019050610550565b50505050905090810190601f1680156105985780820380516001836020036101000a031916815260200191505b5094505050505060405180910390a1336003600083815260200190815260200160002060006101000a81548173ffffffffffffffffffffffffffffffffffffffff021916908373ffffffffffffffffffffffffffffffffffffffff160217905550600460003373ffffffffffffffffffffffffffffffffffffffff1673ffffffffffffffffffffffffffffffffffffffff16815260200190815260200160002060008154809291906001019190505550505050565b828054600181600116156101000203166002900490600052602060002090601f016020900481019282601f1061068e57805160ff19168380011785556106bc565b828001600101855582156106bc579182015b828111156106bb5782518255916020019190600101906106a0565b5b5090506106c991906106cd565b5090565b6106ef91905b808211156106eb5760008160009055506001016106d3565b5090565b9056fea265627a7a723158209b0c72da726f287b8f094e3875f272eec6421a3a9aa43f4618de9cad5adadefb64736f6c63430005100032",
  "source": "pragma solidity ^0.5.16;\n\ncontract ZombieFactory {\n    uint256 dnaDigits = 16;\n    uint256 dnaModulus = 10**dnaDigits;\n\n    event NewZombie(uint256 ZombieId, string name, uint256 dna);\n\n    struct Zombie {\n        string name;\n        uint256 dna;\n    }\n\n    Zombie[] public zombies;\n\n    mapping(uint256 => address) public zombieToOwner; // key:zombieId, value: zombieOwner\n    mapping(address => uint256) public ownerZombieCount; // key: zombieOwner, value: count of zombie\n\n    // _createZombie 라는 private 함수 생성 인자는 2개 (string _name, uint _dna)\n    function _createZombie(string memory _name, uint256 _dna) internal {\n        // 해당 함수는 전달받은 인자들로 새로운 Zombie를 생성하고 zombies배열에 추가하는 함수\n        // Zombie zombie = Zombie(_name, _dna);\n        // zombies.push(zombie);\n        uint256 zombieId = zombies.push(Zombie(_name, _dna)) - 1;\n        // Zombie 만들어졌어요(contract->FrontEnd)\n        emit NewZombie(zombieId, _name, _dna);\n        // 매핑을 업데이트 하여 msg.sender가 저장되도록 작성\n        zombieToOwner[zombieId] = msg.sender;\n        // 2. msg.sender의 ownerZombieCount라는 증가. (++ 연산자)\n        ownerZombieCount[msg.sender]++;\n    }\n\n    // _generateRandomDna라는 private 함수를 만들고 인자는 (string _str) 반환타입은 (uint)\n    // 이 함수는 컨트랙트 변수를 보지만 변경하지는 않을 것이므로 view로 선언.\n    function _generateRandomDna(string memory _str)\n        private\n        view\n        returns (uint256)\n    {\n        // 함수내용은 _str을 keccak256 해시값(fake random)을 구해서 uint256 rand에 저장\n        // 해당 rand값을 16자리로 만들어서 반환 (hint: rand % ?\n        // 545612348 --> 5자리의 난수로 만들려고 한다. 545612348 % 100000 ( 10**5)\n\n        uint256 rand = uint256(keccak256(abi.encodePacked(_str)));\n        return rand % dnaModulus;\n    }\n\n    function createRandomZombie(string memory _name) public {\n        require(ownerZombieCount[msg.sender] == 0);\n        uint256 randData = _generateRandomDna(_name);\n        _createZombie(_name, randData);\n    }\n}\n",
  "sourcePath": "C:\\Users\\user\\seocho_blockchain\\cryptozombie_0.5.16\\contracts\\ZombieFactory.sol",
  "compiler": {
    "name": "solc",
    "version": "0.5.16+commit.9c3226ce.Emscripten.clang"
  },
  "schemaVersion": "3.4.2",
  "updatedAt": "2021-08-06T07:12:58.485Z",
  "devdoc": {
    "methods": {}
  },
  "userdoc": {
    "methods": {}
  }
}