{
  "contractName": "ZombieHelper",
  "abi": [
    {
      "anonymous": false,
      "inputs": [
        {
          "indexed": false,
          "internalType": "uint256",
          "name": "ZombieId",
          "type": "uint256"
        },
        {
          "indexed": false,
          "internalType": "string",
          "name": "name",
          "type": "string"
        },
        {
          "indexed": false,
          "internalType": "uint256",
          "name": "dna",
          "type": "uint256"
        }
      ],
      "name": "NewZombie",
      "type": "event"
    },
    {
      "anonymous": false,
      "inputs": [
        {
          "indexed": true,
          "internalType": "address",
          "name": "previousOwner",
          "type": "address"
        },
        {
          "indexed": true,
          "internalType": "address",
          "name": "newOwner",
          "type": "address"
        }
      ],
      "name": "OwnershipTransferred",
      "type": "event"
    },
    {
      "constant": false,
      "inputs": [
        {
          "internalType": "string",
          "name": "_name",
          "type": "string"
        }
      ],
      "name": "createRandomZombie",
      "outputs": [],
      "payable": false,
      "stateMutability": "nonpayable",
      "type": "function"
    },
    {
      "constant": false,
      "inputs": [
        {
          "internalType": "uint256",
          "name": "_zombieId",
          "type": "uint256"
        },
        {
          "internalType": "uint256",
          "name": "_kittyId",
          "type": "uint256"
        }
      ],
      "name": "feedOnKitty",
      "outputs": [],
      "payable": false,
      "stateMutability": "nonpayable",
      "type": "function"
    },
    {
      "constant": true,
      "inputs": [],
      "name": "isOwner",
      "outputs": [
        {
          "internalType": "bool",
          "name": "",
          "type": "bool"
        }
      ],
      "payable": false,
      "stateMutability": "view",
      "type": "function"
    },
    {
      "constant": true,
      "inputs": [],
      "name": "owner",
      "outputs": [
        {
          "internalType": "address",
          "name": "",
          "type": "address"
        }
      ],
      "payable": false,
      "stateMutability": "view",
      "type": "function"
    },
    {
      "constant": true,
      "inputs": [
        {
          "internalType": "address",
          "name": "",
          "type": "address"
        }
      ],
      "name": "ownerZombieCount",
      "outputs": [
        {
          "internalType": "uint256",
          "name": "",
          "type": "uint256"
        }
      ],
      "payable": false,
      "stateMutability": "view",
      "type": "function"
    },
    {
      "constant": false,
      "inputs": [],
      "name": "renounceOwnership",
      "outputs": [],
      "payable": false,
      "stateMutability": "nonpayable",
      "type": "function"
    },
    {
      "constant": false,
      "inputs": [
        {
          "internalType": "address",
          "name": "_address",
          "type": "address"
        }
      ],
      "name": "setKittyContractAddress",
      "outputs": [],
      "payable": false,
      "stateMutability": "nonpayable",
      "type": "function"
    },
    {
      "constant": false,
      "inputs": [
        {
          "internalType": "address",
          "name": "newOwner",
          "type": "address"
        }
      ],
      "name": "transferOwnership",
      "outputs": [],
      "payable": false,
      "stateMutability": "nonpayable",
      "type": "function"
    },
    {
      "constant": true,
      "inputs": [
        {
          "internalType": "uint256",
          "name": "",
          "type": "uint256"
        }
      ],
      "name": "zombieToOwner",
      "outputs": [
        {
          "internalType": "address",
          "name": "",
          "type": "address"
        }
      ],
      "payable": false,
      "stateMutability": "view",
      "type": "function"
    },
    {
      "constant": true,
      "inputs": [
        {
          "internalType": "uint256",
          "name": "",
          "type": "uint256"
        }
      ],
      "name": "zombies",
      "outputs": [
        {
          "internalType": "string",
          "name": "name",
          "type": "string"
        },
        {
          "internalType": "uint256",
          "name": "dna",
          "type": "uint256"
        },
        {
          "internalType": "uint32",
          "name": "level",
          "type": "uint32"
        },
        {
          "internalType": "uint32",
          "name": "readyTime",
          "type": "uint32"
        }
      ],
      "payable": false,
      "stateMutability": "view",
      "type": "function"
    },
    {
      "constant": false,
      "inputs": [
        {
          "internalType": "uint256",
          "name": "_zombieId",
          "type": "uint256"
        },
        {
          "internalType": "string",
          "name": "_newName",
          "type": "string"
        }
      ],
      "name": "changeName",
      "outputs": [],
      "payable": false,
      "stateMutability": "nonpayable",
      "type": "function"
    },
    {
      "constant": false,
      "inputs": [
        {
          "internalType": "uint256",
          "name": "_zombieId",
          "type": "uint256"
        },
        {
          "internalType": "uint256",
          "name": "_newDna",
          "type": "uint256"
        }
      ],
      "name": "changeDna",
      "outputs": [],
      "payable": false,
      "stateMutability": "nonpayable",
      "type": "function"
    },
    {
      "constant": true,
      "inputs": [
        {
          "internalType": "address",
          "name": "_owner",
          "type": "address"
        }
      ],
      "name": "getZombiesByOwner",
      "outputs": [
        {
          "internalType": "uint256[]",
          "name": "",
          "type": "uint256[]"
        }
      ],
      "payable": false,
      "stateMutability": "view",
      "type": "function"
    }
  ],
  "bytecode": "0x60806040526010600155600154600a0a6002556201518060035560006100296100cc60201b60201c565b9050806000806101000a81548173ffffffffffffffffffffffffffffffffffffffff021916908373ffffffffffffffffffffffffffffffffffffffff1602179055508073ffffffffffffffffffffffffffffffffffffffff16600073ffffffffffffffffffffffffffffffffffffffff167f8be0079c531659141344cd1fd0a4f28419497f9722a3daafe3b4186f6b6457e060405160405180910390a3506100d4565b600033905090565b61167e806100e36000396000f3fe608060405234801561001057600080fd5b50600436106100cf5760003560e01c80635faf28801161008c5780638da5cb5b116100665780638da5cb5b146104805780638f32d59b146104ca578063c39cbef1146104ec578063f2fde38b1461056f576100cf565b80635faf288014610383578063715018a6146103bb5780637bff0a01146103c5576100cf565b806301afd7e1146100d457806317a7f4cc1461012c5780632052465e146101645780634412e10414610238578063528b7b8f146102d15780635f4623f11461033f575b600080fd5b610116600480360360208110156100ea57600080fd5b81019080803573ffffffffffffffffffffffffffffffffffffffff1690602001909291905050506105b3565b6040518082815260200191505060405180910390f35b6101626004803603604081101561014257600080fd5b8101908080359060200190929190803590602001909291905050506105cb565b005b6101906004803603602081101561017a57600080fd5b8101908080359060200190929190505050610756565b60405180806020018581526020018463ffffffff1663ffffffff1681526020018363ffffffff1663ffffffff168152602001828103825286818151815260200191508051906020019080838360005b838110156101fa5780820151818401526020810190506101df565b50505050905090810190601f1680156102275780820380516001836020036101000a031916815260200191505b509550505050505060405180910390f35b61027a6004803603602081101561024e57600080fd5b81019080803573ffffffffffffffffffffffffffffffffffffffff16906020019092919050505061084b565b6040518080602001828103825283818151815260200191508051906020019060200280838360005b838110156102bd5780820151818401526020810190506102a2565b505050509050019250505060405180910390f35b6102fd600480360360208110156102e757600080fd5b8101908080359060200190929190505050610978565b604051808273ffffffffffffffffffffffffffffffffffffffff1673ffffffffffffffffffffffffffffffffffffffff16815260200191505060405180910390f35b6103816004803603602081101561035557600080fd5b81019080803573ffffffffffffffffffffffffffffffffffffffff1690602001909291905050506109ab565b005b6103b96004803603604081101561039957600080fd5b810190808035906020019092919080359060200190929190505050610a69565b005b6103c3610b41565b005b61047e600480360360208110156103db57600080fd5b81019080803590602001906401000000008111156103f857600080fd5b82018360208201111561040a57600080fd5b8035906020019184600183028401116401000000008311171561042c57600080fd5b91908080601f016020809104026020016040519081016040528093929190818152602001838380828437600081840152601f19601f820116905080830192505050505050509192919290505050610c7a565b005b610488610ce1565b604051808273ffffffffffffffffffffffffffffffffffffffff1673ffffffffffffffffffffffffffffffffffffffff16815260200191505060405180910390f35b6104d2610d0a565b604051808215151515815260200191505060405180910390f35b61056d6004803603604081101561050257600080fd5b81019080803590602001909291908035906020019064010000000081111561052957600080fd5b82018360208201111561053b57600080fd5b8035906020019184600183028401116401000000008311171561055d57600080fd5b9091929391929390505050610d68565b005b6105b16004803603602081101561058557600080fd5b81019080803573ffffffffffffffffffffffffffffffffffffffff169060200190929190505050610e4c565b005b60066020528060005260406000206000915090505481565b6000600760009054906101000a900473ffffffffffffffffffffffffffffffffffffffff1673ffffffffffffffffffffffffffffffffffffffff1663e98b7f4d836040518263ffffffff1660e01b8152600401808281526020019150506101406040518083038186803b15801561064157600080fd5b505afa158015610655573d6000803e3d6000fd5b505050506040513d61014081101561066c57600080fd5b81019080805190602001909291908051906020019092919080519060200190929190805190602001909291908051906020019092919080519060200190929190805190602001909291908051906020019092919080519060200190929190805190602001909291905050509091929394959697985090919293949596975090919293949596509091929394955090919293945090919293509091925090915090508091505061075183826040518060400160405280600581526020017f6b69747479000000000000000000000000000000000000000000000000000000815250610ed2565b505050565b6004818154811061076357fe5b9060005260206000209060030201600091509050806000018054600181600116156101000203166002900480601f01602080910402602001604051908101604052809291908181526020018280546001816001161561010002031660029004801561080f5780601f106107e45761010080835404028352916020019161080f565b820191906000526020600020905b8154815290600101906020018083116107f257829003601f168201915b5050505050908060010154908060020160009054906101000a900463ffffffff16908060020160049054906101000a900463ffffffff16905084565b606080600660008473ffffffffffffffffffffffffffffffffffffffff1673ffffffffffffffffffffffffffffffffffffffff168152602001908152602001600020546040519080825280602002602001820160405280156108bc5781602001602082028038833980820191505090505b509050600080905060008090505b60048054905081101561096d576005600082815260200190815260200160002060009054906101000a900473ffffffffffffffffffffffffffffffffffffffff1673ffffffffffffffffffffffffffffffffffffffff168573ffffffffffffffffffffffffffffffffffffffff161415610960578083838151811061094b57fe5b60200260200101818152505081806001019250505b80806001019150506108ca565b508192505050919050565b60056020528060005260406000206000915054906101000a900473ffffffffffffffffffffffffffffffffffffffff1681565b6109b3610d0a565b610a25576040517f08c379a00000000000000000000000000000000000000000000000000000000081526004018080602001828103825260208152602001807f4f776e61626c653a2063616c6c6572206973206e6f7420746865206f776e657281525060200191505060405180910390fd5b80600760006101000a81548173ffffffffffffffffffffffffffffffffffffffff021916908373ffffffffffffffffffffffffffffffffffffffff16021790555050565b6014828160048281548110610a7a57fe5b906000526020600020906003020160020160009054906101000a900463ffffffff1663ffffffff161015610aad57600080fd5b3373ffffffffffffffffffffffffffffffffffffffff166005600086815260200190815260200160002060009054906101000a900473ffffffffffffffffffffffffffffffffffffffff1673ffffffffffffffffffffffffffffffffffffffff1614610b1857600080fd5b8260048581548110610b2657fe5b90600052602060002090600302016001018190555050505050565b610b49610d0a565b610bbb576040517f08c379a00000000000000000000000000000000000000000000000000000000081526004018080602001828103825260208152602001807f4f776e61626c653a2063616c6c6572206973206e6f7420746865206f776e657281525060200191505060405180910390fd5b600073ffffffffffffffffffffffffffffffffffffffff166000809054906101000a900473ffffffffffffffffffffffffffffffffffffffff1673ffffffffffffffffffffffffffffffffffffffff167f8be0079c531659141344cd1fd0a4f28419497f9722a3daafe3b4186f6b6457e060405160405180910390a360008060006101000a81548173ffffffffffffffffffffffffffffffffffffffff021916908373ffffffffffffffffffffffffffffffffffffffff160217905550565b6000600660003373ffffffffffffffffffffffffffffffffffffffff1673ffffffffffffffffffffffffffffffffffffffff1681526020019081526020016000205414610cc657600080fd5b6000610cd1826110a4565b9050610cdd8282611132565b5050565b60008060009054906101000a900473ffffffffffffffffffffffffffffffffffffffff16905090565b60008060009054906101000a900473ffffffffffffffffffffffffffffffffffffffff1673ffffffffffffffffffffffffffffffffffffffff16610d4c611361565b73ffffffffffffffffffffffffffffffffffffffff1614905090565b6002838160048281548110610d7957fe5b906000526020600020906003020160020160009054906101000a900463ffffffff1663ffffffff161015610dac57600080fd5b3373ffffffffffffffffffffffffffffffffffffffff166005600087815260200190815260200160002060009054906101000a900473ffffffffffffffffffffffffffffffffffffffff1673ffffffffffffffffffffffffffffffffffffffff1614610e1757600080fd5b838360048781548110610e2657fe5b90600052602060002090600302016000019190610e449291906114fe565b505050505050565b610e54610d0a565b610ec6576040517f08c379a00000000000000000000000000000000000000000000000000000000081526004018080602001828103825260208152602001807f4f776e61626c653a2063616c6c6572206973206e6f7420746865206f776e657281525060200191505060405180910390fd5b610ecf81611369565b50565b6005600084815260200190815260200160002060009054906101000a900473ffffffffffffffffffffffffffffffffffffffff1673ffffffffffffffffffffffffffffffffffffffff163373ffffffffffffffffffffffffffffffffffffffff1614610f3d57600080fd5b600060048481548110610f4c57fe5b90600052602060002090600302019050610f65816114ad565b610f6e57600080fd5b600060028483600101540181610f8057fe5b04905060405160200180807f6b69747479000000000000000000000000000000000000000000000000000000815250600501905060405160208183030381529060405280519060200120836040516020018082805190602001908083835b602083106110015780518252602082019150602081019050602083039250610fde565b6001836020036101000a0380198251168184511680821785525050505050509050019150506040516020818303038152906040528051906020012014156110555760636064828161104e57fe5b0682030190505b6110946040518060400160405280600681526020017f4e6f4e616d65000000000000000000000000000000000000000000000000000081525082611132565b61109d826114d4565b5050505050565b600080826040516020018082805190602001908083835b602083106110de57805182526020820191506020810190506020830392506110bb565b6001836020036101000a0380198251168184511680821785525050505050509050019150506040516020818303038152906040528051906020012060001c9050600254818161112957fe5b06915050919050565b6000600160046040518060800160405280868152602001858152602001600163ffffffff168152602001600354420163ffffffff168152509080600181540180825580915050906001820390600052602060002090600302016000909192909190915060008201518160000190805190602001906111b192919061157e565b506020820151816001015560408201518160020160006101000a81548163ffffffff021916908363ffffffff16021790555060608201518160020160046101000a81548163ffffffff021916908363ffffffff16021790555050500390507f88f026aacbbecc90c18411df4b1185fd8d9be2470f1962f192bf84a27d0704b78184846040518084815260200180602001838152602001828103825284818151815260200191508051906020019080838360005b8381101561127f578082015181840152602081019050611264565b50505050905090810190601f1680156112ac5780820380516001836020036101000a031916815260200191505b5094505050505060405180910390a1336005600083815260200190815260200160002060006101000a81548173ffffffffffffffffffffffffffffffffffffffff021916908373ffffffffffffffffffffffffffffffffffffffff160217905550600660003373ffffffffffffffffffffffffffffffffffffffff1673ffffffffffffffffffffffffffffffffffffffff16815260200190815260200160002060008154809291906001019190505550505050565b600033905090565b600073ffffffffffffffffffffffffffffffffffffffff168173ffffffffffffffffffffffffffffffffffffffff1614156113ef576040517f08c379a00000000000000000000000000000000000000000000000000000000081526004018080602001828103825260268152602001806116246026913960400191505060405180910390fd5b8073ffffffffffffffffffffffffffffffffffffffff166000809054906101000a900473ffffffffffffffffffffffffffffffffffffffff1673ffffffffffffffffffffffffffffffffffffffff167f8be0079c531659141344cd1fd0a4f28419497f9722a3daafe3b4186f6b6457e060405160405180910390a3806000806101000a81548173ffffffffffffffffffffffffffffffffffffffff021916908373ffffffffffffffffffffffffffffffffffffffff16021790555050565b60008160020160049054906101000a900463ffffffff1663ffffffff164210159050919050565b60035442018160020160046101000a81548163ffffffff021916908363ffffffff16021790555050565b828054600181600116156101000203166002900490600052602060002090601f016020900481019282601f1061153f57803560ff191683800117855561156d565b8280016001018555821561156d579182015b8281111561156c578235825591602001919060010190611551565b5b50905061157a91906115fe565b5090565b828054600181600116156101000203166002900490600052602060002090601f016020900481019282601f106115bf57805160ff19168380011785556115ed565b828001600101855582156115ed579182015b828111156115ec5782518255916020019190600101906115d1565b5b5090506115fa91906115fe565b5090565b61162091905b8082111561161c576000816000905550600101611604565b5090565b9056fe4f776e61626c653a206e6577206f776e657220697320746865207a65726f2061646472657373a265627a7a723158208ea31ca2a72d133aff89ce78d9400042b6a4c05ee3035c878415a424ca00abf364736f6c63430005100032",
  "source": "pragma solidity ^0.5.16;\r\n\r\nimport \"./ZombieFeeding.sol\";\r\n\r\ncontract ZombieHelper is ZombieFeeding {\r\n    modifier aboveLevel(uint256 _level, uint256 _zombieId) {\r\n        require(zombies[_zombieId].level >= _level);\r\n        _;\r\n    }\r\n\r\n    function changeName(uint256 _zombieId, string calldata _newName)\r\n        external\r\n        aboveLevel(2, _zombieId)\r\n    {\r\n        require(zombieToOwner[_zombieId] == msg.sender);\r\n        zombies[_zombieId].name = _newName;\r\n    }\r\n\r\n    function changeDna(uint256 _zombieId, uint256 _newDna)\r\n        external\r\n        aboveLevel(20, _zombieId)\r\n    {\r\n        require(zombieToOwner[_zombieId] == msg.sender);\r\n        zombies[_zombieId].dna = _newDna;\r\n    }\r\n\r\n    /**\r\n    getZombiesByOwner\r\n    - address _owner가 소유한 모든 좀비들의 id(index)를 return하는 함수.\r\n    - for 반복문을 써서 getZombiesByOwner 함수 작성!\r\n    - 우리의 모든 좀비들에 접근 + 소유자 확인 + result 배열에 추가 후 반환\r\n\r\n     */\r\n\r\n    function getZombiesByOwner(address _owner)\r\n        external\r\n        view\r\n        returns (uint256[] memory)\r\n    {\r\n        uint256[] memory result = new uint256[](ownerZombieCount[_owner]);\r\n\r\n        uint256 zombieCount = 0;\r\n\r\n        // 1.   전체 좀비의 수만큼 반복한다.\r\n        for (uint256 i = 0; i < zombies.length; i++) {\r\n            // i: zombie의 id (index)\r\n            if (_owner == zombieToOwner[i]) {\r\n                // 2.   각 좀비마다 owner를 확인하고 비교한다.\r\n                // 2-1. 좀비의 owner가 _owner와 같으면 result에 추가한다.\r\n                result[zombieCount] = i;\r\n                zombieCount++;\r\n            }\r\n        }\r\n\r\n        // 3.   result를 return한다.\r\n        return result;\r\n    }\r\n}\r\n",
  "sourcePath": "C:\\Users\\user\\seocho_blockchain\\cryptozombie_0.5.16\\contracts\\ZombieHelper.sol",
  "compiler": {
    "name": "solc",
    "version": "0.5.16+commit.9c3226ce.Emscripten.clang"
  },
  "schemaVersion": "3.4.2",
  "updatedAt": "2021-08-08T04:25:48.493Z",
  "devdoc": {
    "methods": {
      "isOwner()": {
        "details": "Returns true if the caller is the current owner."
      },
      "owner()": {
        "details": "Returns the address of the current owner."
      },
      "renounceOwnership()": {
        "details": "Leaves the contract without owner. It will not be possible to call `onlyOwner` functions anymore. Can only be called by the current owner.     * NOTE: Renouncing ownership will leave the contract without an owner, thereby removing any functionality that is only available to the owner."
      },
      "transferOwnership(address)": {
        "details": "Transfers ownership of the contract to a new account (`newOwner`). Can only be called by the current owner."
      }
    }
  },
  "userdoc": {
    "methods": {
      "getZombiesByOwner(address)": {
        "notice": "getZombiesByOwner - address _owner가 소유한 모든 좀비들의 id(index)를 return하는 함수. - for 반복문을 써서 getZombiesByOwner 함수 작성! - 우리의 모든 좀비들에 접근 + 소유자 확인 + result 배열에 추가 후 반환"
      }
    }
  }
}