{
  "contractName": "ZombieFeeding",
  "abi": [
    {
      "anonymous": false,
      "inputs": [
        {
          "indexed": false,
          "internalType": "uint256",
          "name": "ZombieId",
          "type": "uint256"
        },
        {
          "indexed": false,
          "internalType": "string",
          "name": "name",
          "type": "string"
        },
        {
          "indexed": false,
          "internalType": "uint256",
          "name": "dna",
          "type": "uint256"
        }
      ],
      "name": "NewZombie",
      "type": "event"
    },
    {
      "constant": false,
      "inputs": [
        {
          "internalType": "string",
          "name": "_name",
          "type": "string"
        }
      ],
      "name": "createRandomZombie",
      "outputs": [],
      "payable": false,
      "stateMutability": "nonpayable",
      "type": "function"
    },
    {
      "constant": true,
      "inputs": [
        {
          "internalType": "address",
          "name": "",
          "type": "address"
        }
      ],
      "name": "ownerZombieCount",
      "outputs": [
        {
          "internalType": "uint256",
          "name": "",
          "type": "uint256"
        }
      ],
      "payable": false,
      "stateMutability": "view",
      "type": "function"
    },
    {
      "constant": true,
      "inputs": [
        {
          "internalType": "uint256",
          "name": "",
          "type": "uint256"
        }
      ],
      "name": "zombieToOwner",
      "outputs": [
        {
          "internalType": "address",
          "name": "",
          "type": "address"
        }
      ],
      "payable": false,
      "stateMutability": "view",
      "type": "function"
    },
    {
      "constant": true,
      "inputs": [
        {
          "internalType": "uint256",
          "name": "",
          "type": "uint256"
        }
      ],
      "name": "zombies",
      "outputs": [
        {
          "internalType": "string",
          "name": "name",
          "type": "string"
        },
        {
          "internalType": "uint256",
          "name": "dna",
          "type": "uint256"
        }
      ],
      "payable": false,
      "stateMutability": "view",
      "type": "function"
    },
    {
      "constant": false,
      "inputs": [
        {
          "internalType": "uint256",
          "name": "_zombieId",
          "type": "uint256"
        },
        {
          "internalType": "uint256",
          "name": "_targetDna",
          "type": "uint256"
        }
      ],
      "name": "feedAndMultiply",
      "outputs": [],
      "payable": false,
      "stateMutability": "nonpayable",
      "type": "function"
    }
  ],
  "bytecode": "0x60806040526010600055600054600a0a60015534801561001e57600080fd5b5061084e8061002e6000396000f3fe608060405234801561001057600080fd5b50600436106100575760003560e01c806301afd7e11461005c5780630dedffb8146100b45780632052465e146100ec578063528b7b8f1461019a5780637bff0a0114610208575b600080fd5b61009e6004803603602081101561007257600080fd5b81019080803573ffffffffffffffffffffffffffffffffffffffff1690602001909291905050506102c3565b6040518082815260200191505060405180910390f35b6100ea600480360360408110156100ca57600080fd5b8101908080359060200190929190803590602001909291905050506102db565b005b6101186004803603602081101561010257600080fd5b81019080803590602001909291905050506103bf565b6040518080602001838152602001828103825284818151815260200191508051906020019080838360005b8381101561015e578082015181840152602081019050610143565b50505050905090810190601f16801561018b5780820380516001836020036101000a031916815260200191505b50935050505060405180910390f35b6101c6600480360360208110156101b057600080fd5b8101908080359060200190929190505050610488565b604051808273ffffffffffffffffffffffffffffffffffffffff1673ffffffffffffffffffffffffffffffffffffffff16815260200191505060405180910390f35b6102c16004803603602081101561021e57600080fd5b810190808035906020019064010000000081111561023b57600080fd5b82018360208201111561024d57600080fd5b8035906020019184600183028401116401000000008311171561026f57600080fd5b91908080601f016020809104026020016040519081016040528093929190818152602001838380828437600081840152601f19601f8201169050808301925050505050505091929192905050506104bb565b005b60046020528060005260406000206000915090505481565b6003600083815260200190815260200160002060009054906101000a900473ffffffffffffffffffffffffffffffffffffffff1673ffffffffffffffffffffffffffffffffffffffff163373ffffffffffffffffffffffffffffffffffffffff161461034657600080fd5b60006002838154811061035557fe5b9060005260206000209060020201905060006002838360010154018161037757fe5b0490506103b96040518060400160405280600681526020017f4e6f4e616d65000000000000000000000000000000000000000000000000000081525082610522565b50505050565b600281815481106103cc57fe5b9060005260206000209060020201600091509050806000018054600181600116156101000203166002900480601f0160208091040260200160405190810160405280929190818152602001828054600181600116156101000203166002900480156104785780601f1061044d57610100808354040283529160200191610478565b820191906000526020600020905b81548152906001019060200180831161045b57829003601f168201915b5050505050908060010154905082565b60036020528060005260406000206000915054906101000a900473ffffffffffffffffffffffffffffffffffffffff1681565b6000600460003373ffffffffffffffffffffffffffffffffffffffff1673ffffffffffffffffffffffffffffffffffffffff168152602001908152602001600020541461050757600080fd5b6000610512826106e6565b905061051e8282610522565b5050565b600060016002604051806040016040528086815260200185815250908060018154018082558091505090600182039060005260206000209060020201600090919290919091506000820151816000019080519060200190610584929190610774565b506020820151816001015550500390507f88f026aacbbecc90c18411df4b1185fd8d9be2470f1962f192bf84a27d0704b78184846040518084815260200180602001838152602001828103825284818151815260200191508051906020019080838360005b838110156106045780820151818401526020810190506105e9565b50505050905090810190601f1680156106315780820380516001836020036101000a031916815260200191505b5094505050505060405180910390a1336003600083815260200190815260200160002060006101000a81548173ffffffffffffffffffffffffffffffffffffffff021916908373ffffffffffffffffffffffffffffffffffffffff160217905550600460003373ffffffffffffffffffffffffffffffffffffffff1673ffffffffffffffffffffffffffffffffffffffff16815260200190815260200160002060008154809291906001019190505550505050565b600080826040516020018082805190602001908083835b6020831061072057805182526020820191506020810190506020830392506106fd565b6001836020036101000a0380198251168184511680821785525050505050509050019150506040516020818303038152906040528051906020012060001c9050600154818161076b57fe5b06915050919050565b828054600181600116156101000203166002900490600052602060002090601f016020900481019282601f106107b557805160ff19168380011785556107e3565b828001600101855582156107e3579182015b828111156107e25782518255916020019190600101906107c7565b5b5090506107f091906107f4565b5090565b61081691905b808211156108125760008160009055506001016107fa565b5090565b9056fea265627a7a7231582058863808ff2aa2f49707cac6a0385a15d0b3152072d6c7e63028065706e4dc5e64736f6c63430005100032",
  "source": "pragma solidity ^0.5.16;\r\n\r\nimport \"./ZombieFactory.sol\";\r\n\r\ncontract ZombieFeeding is ZombieFactory {\r\n    function feedAndMultiply(uint256 _zombieId, uint256 _targetDna) public {\r\n        // 2. 주인만이 먹이를 줄 수 있도록 구성(require문 활용)\r\n        require(msg.sender == zombieToOwner[_zombieId]);\r\n        // 3. 먹이를 먹는 대상 좀비 가져오기\r\n        Zombie storage zombie = zombies[_zombieId];\r\n\r\n        uint256 newDna = (zombie.dna + _targetDna) / 2;\r\n        _createZombie(\"NoName\", newDna);\r\n    }\r\n}\r\n/**\r\n[먹이 먹고 번식하는 능력 부여!] – ZombieFeeding.sol\r\n- 좀비가 다른 생명체를 먹을 때, DNA를 조합해서 새로운 좀비를 만들도록 할 예정\r\n- 먹이는 오직 주인만이 줄 수 있음.\r\n1. feedAndMultiply라는 public 함수를 생성한다. 인자는 (uint _zombieId, uint\r\n_targetDna) \r\n\r\n** hint: msg.sender와 비교할 값은?\r\n3. 먹이를 먹는 대상 좀비 가져오기\r\n(_zombieId로 Zombie 조회!)\r\n값을 변경할 예정이므로 storage변수\r\n4. 새로운 좀비의 DNA 구현 (기존 좀비와 targetDna를 평균)\r\n5. 새로운 좀비의 DNA를 얻은 후 _createZombie 호출\r\n(zombie의 name은 “NoName”으로 한다.\r\n6. (문제점 찾기) 해결하기\r\n// private은 해당 contract에서만 사용 가능 (private vs internal vs external vs public)\r\n */\r\n",
  "sourcePath": "C:\\Users\\user\\seocho_blockchain\\cryptozombie_0.5.16\\contracts\\ZombieFeeding.sol",
  "compiler": {
    "name": "solc",
    "version": "0.5.16+commit.9c3226ce.Emscripten.clang"
  },
  "schemaVersion": "3.4.2",
  "updatedAt": "2021-08-06T07:12:58.487Z",
  "devdoc": {
    "methods": {}
  },
  "userdoc": {
    "methods": {}
  }
}